:02000002B0004C
:1040000000400B0036530B00000006000C000502B8
:084010000401B41400000000DB
:044018004C500B00FD
:10401C00034613F8012B002AFBD1181A01387047FC
:10402C0009480A49884208B505D0094A824202D09B
:10403C00121A00F05BFF0748074A0021121A00F021
:10404C0063FF014808BD00BF40E603209C520B00F3
:10405C00ACE60320ACE60320F0E7032070B5074E76
:10406C00074C00F00FFEA41BA4080025AC4200D1A5
:10407C0070BD56F8043B98470135F7E754520B00D6
:10408C0078520B0000F013B808B500F021F8BDE829
:10409C00084000F0AFBD00F001BA00F007BA00789C
:1040AC00B0FA80F04009704701230370704708B5DF
:1040BC000121052000F056FE0021072000F052FEE1
:1040CC0000F0E8FEBDE808404FF4165100F0AEBC1D
:1040DC0008B500F0DFFE03681B699847002827DD50
:1040EC0000F0D8FE03685B699847C0B23F2813D133
:1040FC0000F0FAFC0F4900F0EEFB072000F05CFE2C
:10410C00B0B10121052000F03EFE00F0C3FEBDE879
:10411C000840094900F0CCBB302805D10021BDE88E
:10412C000840052000F02FBE312801D10121F6E70F
:10413C0008BD00BF60500B006B500B0010B5074B57
:10414C00074A9A600024C3E90044032000F01AF9DE
:10415C0021460120BDE8104000F01CB9ACE603205C
:10416C000000FFFF08B5024B1B685B6C019308BD98
:10417C004802030008B5024B1B685B68019308BD3D
:10418C001802030008B5024B1B685B69019308BD5C
:10419C001802030008B5024B1B689B68019308BD0D
:1041AC002C02030008B5024B1B68DB68019308BDA9
:1041BC002C02030008B5024B1B681B69019308BD58
:1041CC002C02030008B5024B1B685B69019308BD08
:1041DC002C02030008B5024B1B681B6A019308BD37
:1041EC002802030008B5024B1B685B6A019308BDEB
:1041FC002802030008B5024B1B689B6A019308BD9B
:10420C002802030008B5024B1B68DB6A019308BD4A
:10421C002802030008B5024B1B681B6B019308BDF9
:10422C002802030008B5024B1B685B6B019308BDA9
:10423C002802030008B5024B1B681B6C019308BDD8
:10424C002802030008B5024B1B685B69019308BD8B
:10425C006402030008B5024B1B689B68019308BD00
:10426C006802030008B5024B1B68DB68019308BDAC
:10427C006802030008B5024B1B68DB69019308BD9B
:10428C003002030008B5024B1B681B6A019308BD82
:10429C003002030008B5024B1B68DB68019308BDB4
:1042AC003C02030008B5024B1B681B69019308BD57
:1042BC003C02030008B5024B1B685B69019308BD07
:1042CC003C02030008B5024B1B689B69019308BDB7
:1042DC003C02030008B5024B1B68DB69019308BD67
:1042EC003C02030008B5024B1B681B6A019308BD16
:1042FC003C02030008B5024B1B689B6A019308BD86
:10430C003C02030008B5024B1B68DB6A019308BD35
:10431C003C02030008B5024B1B681B6C019308BDE3
:10432C003C02030008B5024B1B681B68019308BDD7
:10433C004C02030008B5024B1B681B69019308BDB6
:10434C004C02030008B5024B1B685B69019308BD66
:10435C004C02030008B5024B1B689B69019308BD16
:10436C004C02030008B5024B1B68DB69019308BDC6
:10437C004C02030008B5024B1B681B6A019308BD75
:10438C004C02030008B5024B1B685B68019308BD27
:10439C002002030008B5024B1B68DB6A019308BDC1
:1043AC002002030008B5034B1B68D3F88830019337
:1043BC0008BD00002002030008B5034B1B68D3F8AE
:1043CC009430019308BD00002002030008B5024B95
:1043DC001B68DB6B019308BD4402030008B5024B5C
:1043EC001B685B68019308BD4002030008B5024BD3
:1043FC001B689B68019308BD4002030008B5024B83
:10440C001B68DB68019308BD4002030008B5024B32
:10441C001B681B69019308BD4002030008B5024BE1
:10442C001B685B69019308BD4002030008B5024B91
:10443C001B689B69019308BD4002030008B5024B41
:10444C001B68DB69019308BD4002030008B5024BF1
:10445C001B681B6A019308BD4002030008B5024BA0
:10446C001B681B6B019308BD4002030008B5024B8F
:10447C001B685B6B019308BD4002030008B5024B3F
:10448C001B681B6C019308BD4002030008B5024B6E
:10449C001B685B6C019308BD4002030008B5024B1E
:1044AC001B681B68019308BD1C02030008B5024B76
:1044BC001B685B68019308BD1C02030008B5024B26
:1044CC001B681B6C019308BD1C02030008B5024B52
:1044DC001B685B6C019308BD1C020300024800239F
:1044EC000360FFF73FBE00BFB8E603200022406820
:1044FC001146FFF7ABBF002240681146FFF7B6BF6D
:10450C0040680022FFF7AABF4068002281F0010139
:10451C00FFF794BF002340681A461946FFF786BF81
:10452C00002340681A461946FFF778BF00224068FE
:10453C001146FFF76BBF002240681146FFF756BFCC
:10454C00406800220221FFF759BF002340681A4639
:10455C00FFF744BF024B03225A60024A1A607047AD
:10456C00BCE6032078500B007047F8B5064615469C
:10457C000C468F18BC4206D0336814F8011B9B689C
:10458C0030469847F6E72846F8BD007C0022FFF736
:10459C0021BE007C0021FFF725BE007C0021FFF727
:1045AC0029BE007C0021FFF72DBE007C0021FFF707
:1045BC0031BE10B514210446FFF76FFD204610BD27
:1045CC0038B5044615464FF47A730022C4E901232A
:1045DC00094B2174084623602946FFF72BFEBF3098
:1045EC0008D16B69DB0705D56868FFF75FFFE868E2
:1045FC00FFF75CFF204638BDB4500B00704710B578
:10460C0018210446FFF749FD204610BDF0B5037D87
:10461C00062B8DB00E4600F104074FF0000412D0AB
:10462C0000F1080515F8011D0A22304600F05DF96D
:10463C00AF42044419D0002CF4D02E21304600F0A7
:10464C003BF90444EEE72F236A4639460A208DF8DD
:10465C000040FFF7F7FD6846FFF7DAFC33680246C7
:10466C00DB68694630469847044620460DB0F0BDDD
:10467C0010B5054B0446112240F8043B002100F014
:10468C0043FC204610BD00BFDC500B000346074A1C
:10469C0010B543F8042B01F1100251F8044B43F808
:1046AC00044B9142F9D10A781A7010BDDC500B0002
:1046BC0010B59DF8084044EA032343EA024242EA5B
:1046CC00016104234160037510BD000007B5064B62
:1046DC000360CB7800938B784A780978FFF7E8FF72
:1046EC0003B05DF804FB00BFDC500B00014B024A29
:1046FC001A607047C4E60320E8500B0000234068A2
:10470C001A46FFF76BBE406800220221FFF776BE07
:10471C00002240681146FFF769BE0022406811462E
:10472C00FFF774BE002340681A461946FFF776BEA1
:10473C00002340681A461946FFF778BE40680021EE
:10474C00FFF79CBE40680021FFF7A0BE4068002226
:10475C0081F00101FFF772BE40680022FFF77EBEB8
:10476C00002240681146FFF781BE002240681146C6
:10477C00FFF76CBE2DE9F04395B014460D46074685
:10478C00FFF776FF00211C220DA8009100F0BCFB66
:10479C0040230C9320466B460CAA0021FFF762FDC8
:1047AC00044600284BD1024601216868FFF72EFE13
:1047BC000221804622466868FFF728FE009E81464B
:1047CC002146002E3BD0002939D17368022B03D02F
:1047DC000A2B11D0F669F4E7B8F1000FFAD0716921
:1047EC0006A8043107ADFFF771FF0FCD3C1D0FC4B8
:1047FC002B6823704146EDE7B9F1000FEAD07469DC
:10480C00102201A800F080FB06238DF8143001ADB6
:10481C0004F108031834186859682A4603C208338F
:10482C00A3421546F7D101A906A807ADFFF72EFF45
:10483C000FCD3C1D0FC42B6823704946CAE7009866
:10484C00FFF708FD384615B0BDE8F083024B034A6C
:10485C001A6000225A607047C8E60320F4500B001F
:10486C00F8B506460D468F180024BD420CD03368AF
:10487C0015F8011B9B6830469847031E01DB1C444E
:10488C00F3E7002C08BF1C462046F8BD13B50446C0
:10489C00084659B10191FFF7BBFB23680199DB680E
:1048AC000246204602B0BDE81040184702B010BDC9
:1048BC0008B5FFF7EBFF08BD03689B68184738B5D0
:1048CC000D210546FFF7F8FF0A2104462846FFF79D
:1048DC00F3FF204438BD38B50546FFF7D7FF044633
:1048EC002846FFF7ECFF204438BD30B58BB00023D1
:1048FC00012A8DF8243098BF0A2209AC0D46B1FB71
:10490C00F2F101FB125303F0FF03092B94BF303378
:10491C003733DBB2AA4204F8013DEFD92146FFF749
:10492C00B5FF0BB030BD0000014B00229A60704700
:10493C00D0E6032010B5044608462170FFF79AFC18
:10494C0000236360204610BD054B02221A60054B04
:10495C00054A9A600020C3E90000FFF713BD00BFB1
:10496C00ECE60320E0E603200000FFFF024B1A6890
:10497C00024B1A60704700BF40E60320F0E60320AC
:10498C0070474174704708B5007CFFF7B3FC20EA10
:10499C00E07008BD08B5007CFFF784FC20EAE070ED
:1049AC0008BD08B5007CFFF78DFC40EAE07008BD3F
:1049BC0008B5007CFFF77EFC40EAE07008BD007C87
:1049CC00FFF788BC37B5457C04462DB1207C03B07D
:1049DC00BDE83040FFF75EBC007C0191FFF78AFC1C
:1049EC0000280199F2DC284603B030BD10B5142123
:1049FC000446FFF752FB204610BD000010B54FF4E3
:104A0C007A730446084611460022C4E90123044B7C
:104A1C002360012320746374FFF77CFC204610BDD7
:104A2C004C510B00007C0023FFF76CBC0022FFF7FD
:104A3C00F9BF417470477047704708B50021007C7E
:104A4C00FFF788FC40EAE07008BD08B50121007C46
:104A5C00FFF780FC40EAE07008BD08B5007CFFF76A
:104A6C0071FC20EAE07008BD08B5007CFFF762FC21
:104A7C0020EAE07008BD13B50446007C0191FFF7F5
:104A8C0061FC0028019901DC607C20B1207CFFF7DF
:104A9C0069FC20EAE07002B010BD007CFFF76ABC34
:104AAC0010B514210446FFF7F8FA204610BD00009B
:104ABC0010B54FF47A73044608460021C4E901137B
:104ACC00044B23600123207463741146FFF72AFC06
:104ADC00204610BD7C510B0010B514220446002159
:104AEC0000F012FA204610BD10B50F4C88B003A888
:104AFC00FFF7F2FF2178BFF35B8F11F001010FD1AB
:104B0C0020460191FFF7CBFA019948B103AA074857
:104B1C00FFF7CEFF2046FFF7C7FA054800F0E0F993
:104B2C00024808B010BD00BFF4E60320F8E60320ED
:104B3C00434A0B00002240681146FFF767BC002275
:104B4C0040681146FFF782BC002240681146FFF70F
:104B5C008DBC40680022FFF781BC4068002281F0C8
:104B6C000101FFF76BBC002340681A461946FFF79A
:104B7C005DBC002340681A461946FFF74FBC002263
:104B8C0040681146FFF732BC406800220221FFF753
:104B9C0035BC002340681A46FFF720BC024B0422A8
:104BAC005A60024A1A6070470CE70320AC510B00A4
:104BBC00014B1860704700BF44E6032008B50B4B4F
:104BCC0043B1FFF791FF03681B699847002801DD8B
:104BDC00AFF30080064B43B100F05CF903681B692E
:104BEC009847002801DDAFF3008008BD00000000ED
:104BFC000000000008B5FFF7E1FFFFF7C3FA014B17
:104C0C00186008BD28E703200548064A064908B580
:104C1C00121A00F06BF9054B054A1A6008BD00BF6B
:104C2C0000F4032004F4032008530B0000F40320C9
:104C3C001E1C279A07B5002300931A466FF07701C4
:104C4C00FFF7BAFB03B05DF804FB000007B543881F
:104C5C000A2B08D0502B0BD1094B1B684BB103B05E
:104C6C005DF804EB1847FFF7E5FF03B05DF804FBB4
:104C7C00002300931A466FF07701FFF79DFBF4E7D2
:104C8C0018E7032010B512480021FFF71FFC114B49
:104C9C001A68114B9A42114B0CBF012200221A7058
:104CAC0001D0FFF7B1FFFFF765FA044600F034F9C5
:104CBC000B4B13B12046AFF3008000210848FFF7DF
:104CCC0085FBBDE8104007480021FFF76BBB00BF18
:104CDC00BD4B0B0000F403201E1C279A14E7032085
:104CEC0000000000594C0B00232813B502D90020FA
:104CFC0002B010BDA0F10B03022B1AD8174C21786F
:104D0C00BFF35B8F11F001010BD120460191FFF72E
:104D1C00C6F9019928B11248FFF70CFE2046FFF79F
:104D2C00C3F90F4B1878FFF7ADFA0028DFD101203B
:104D3C00DEE7012809D800F06DF80021007CFFF7B0
:104D4C0071FA80F00100C0B2D2E709380128EED820
:104D5C0000F0A0F8007CFFF7C5FAF2E71CE703208F
:104D6C0020E70320232838B504460D460AD8FF292E
:104D7C0008D0FFF7B9FF28B129462046BDE83840D6
:104D8C00FFF708BA38BD38B504460D46FFF70AFAE6
:104D9C00FF2810D0062804D84D2323FA00F0C307AF
:104DAC0009D42046FFF7A0FF28B129462046BDE8CC
:104DBC003840FFF7FFB938BD10B50446FFF7F2F9DC
:104DCC00031FDBB2012B08D92046FFF78DFF20B162
:104DDC002046BDE81040FFF7F5B9002010BD704724
:104DEC0038B50A4B0360012304464361084920206F
:104DFC0000F074F8202560600549A560284600F095
:104E0C006DF8C4E90305204638BD00BF1800010049
:104E1C00E0510B0030B50E4D2978BFF35B8F11F0CC
:104E2C00010487B011D12846FFF739F968B16846FB
:104E3C00FFF7D6FF6A4621460648FFF7C1FB284616
:104E4C00FFF732F9044800F04BF8024807B030BDC8
:104E5C002CE7032030E70320EB4D0B0070470000DC
:104E6C0038B5044614252A46002100F04DF825805B
:104E7C004025074925812846258200F02FF8044952
:104E8C006060284600F02AF8E060204638BD00BF7C
:104E9C00E0510B0030B50E4D2978BFF35B8F11F04C
:104EAC00010487B011D12846FFF7F9F868B101A8C1
:104EBC00FFF7D6FF01AA21460648FFF79FFD2846BB
:104ECC00FFF7F2F8044800F00BF8024807B030BDC9
:104EDC0044E7032048E70320694E0B00FFF7DBB8DB
:104EEC00002301461A46184600F044B80A44914281
:104EFC0000F1FF3300D1704710B511F8014B03F8E6
:104F0C00014F9142F9D110BD02440346934200D1A6
:104F1C00704703F8011BF9E738B5104B1D68AB6BF4
:104F2C000446B3B91820FFF7B9FA0246A86320B9B2
:104F3C000B4B0C484221FFF7C1FA0B490B4BC0E954
:104F4C0000130B4B83600B23838100210120C2E9EA
:104F5C000401AB6B00221C615A6138BD44E603208E
:104F6C00E1510B00F8510B000E33CDAB34126DE652
:104F7C00ECDE05002DE9F843DFF8B8800646D8F8DA
:104F8C0000001F460D46914600F056F8254B1C6854
:104F9C0034B9254C1C60254B13B11B68C4F8883000
:104FAC0063681F2B07DDD8F8000000F047F84FF0BE
:104FBC00FF30BDE8F8834EB3D4F8880088B91C4B99
:104FCC0023B9D8F8000000F038F8F0E74FF48470FB
:104FDC00FFF764FA0028F4D00023C0E94033C4F88A
:104FEC008800636840F8239001229A4000EB83010B
:104FFC00D0F800311343C0F80031022EC1F8807094
:10500C0002BFD0F804311343C0F804316368D8F8F8
:10501C0000005A1C0233626044F8235000F00EF872
:10502C000020C6E7E8E703205CE70320000000004F
:10503C00A9440B00A8E60320704770477047000096
:10504C002D400B0069400B0091400B0095400B006C
:10505C00000000003F205265636965766564005866
:10506C0000000000000000000000000057450B008D
:10507C004D450B0043450B0039450B002D450B00EE
:10508C0021450B0049470B0051470B0015450B0000
:10509C000D450B0003450B00F9440B0081470B0039
:1050AC00000000000000000075450B00BF450B0020
:1050BC0097450B0077450B009F450B00A7450B0050
:1050CC00AF450B00B7450B000000000000000000CE
:1050DC0019460B0009460B000B460B006170700063
:1050EC00000000000000000009470B0013470B00F4
:1050FC001D470B0027470B0031470B003D470B00AA
:10510C0049470B0051470B0059470B0065470B00F3
:10511C006D470B0077470B0081470B0025592D2558
:10512C006D2D25645425483A254D3A2553257A0092
:10513C0061736374696D650000000000000000007D
:10514C008D490B00F9490B00D1490B006D480B0040
:10515C00A1490B00BD490B00AF490B00CB490B001B
:10516C008F490B0093490B00000000000000000069
:10517C00454A0B00AD4A0B00834A0B006D480B00EF
:10518C00754A0B00474A0B00574A0B00A74A0B0005
:10519C00674A0B003F4A0B000000000000000000B3
:1051AC009F4B0B00954B0B008B4B0B00414B0B009B
:1051BC007F4B0B00734B0B0049470B0051470B0007
:1051CC00674B0B005F4B0B00554B0B004B4B0B0015
:1051DC0081470B00005245454E54206D616C6C6F3D
:1051EC006320737563636565646564002F746D700B
:1051FC002F6A656E6B696E732D4743432D31302DCD
:10520C00706970656C696E652D34385F3230323080
:10521C00313132345F313630363138303633392F24
:10522C007372632F6E65776C69622F6E65776C692C
:10523C00622F6C6962632F7374646C69622F726184
:10524C006E642E630000000049410B00E9440B0022
:10525C0061450B00F9460B0059480B0035490B0012
:0C526C0055490B0079490B00A94B0B00C1
:10527800040000001400000003000000474E550021
:10528800EF298E0217AB4CB7AE35E4D13E159E52CE
:04529800314AD62A97
:10529C003C510B0048E60320000000000000000019
:1052AC0000000000000000000000000000000000F2
:1052BC0000000000000000000000000000000000E2
:1052CC0000000000000000000000000000000000D2
:1052DC0000000000000000000000000000000000C2
:1052EC0000000000000000000000000000000000B2
:0C52FC000000000000000000ECE70320B0
:0453080000000000A1
:1053120000000102030405060708090A0B0C0D0E22
:105322000F101112131415161718191A1B1C1D1E13
:045332001F20280010
:04533600785634125F
:04000003B000401CED
:00000001FF
